:100000000C9446000C9465000C9465000C946500FB
:100010000C9465000C9465000C9465000C946500CC
:100020000C9465000C9465000C9465000C946500BC
:100030000C9465000C9465000C9465000C946500AC
:100040000C9465000C9465000C9470000C94650091
:100050000C9465000C9465000C9465000C9465008C
:100060000C9465000C9465000C9465000C9465007C
:100070000C9465000C9465000C9465000C9465006C
:100080000C9465000C9465000C94650011241FBE4F
:10009000CFEFD0E1DEBFCDBF11E0A0E0B1E0ECEAF0
:1000A000F1E000E00BBF02C007900D92A233B10750
:1000B000D9F721E0A2E3B1E001C01D92A739B20750
:1000C000E1F70E94C5000C94D4000C940000FC01E0
:1000D0009191911101C008955D9BFECF9CB9F8CF1D
:1000E0001F920F920FB60F9211240BB60F922F93FF
:1000F0003F934F935F936F937F938F939F93AF93B0
:10010000BF93EF93FF938CB18D3011F08A30C9F417
:10011000E0919601F0E0EE5CFE4F10828091960136
:10012000882361F080E091E00E94670082E391E023
:100130000E9467008DE191E00E9467001092960195
:100140000EC0909196019336E8F4E091960191E00B
:100150009E0F90939601F0E0EE5CFE4F8083FF913E
:10016000EF91BF91AF919F918F917F916F915F912F
:100170004F913F912F910F900BBE0F900FBE0F909C
:100180001F9018958EE091E0D7CF1092900087E6EF
:1001900089B988E98AB986E080939500789480E2ED
:0C01A00091E00E946700FFCFF894FFCFB1
:1001AC00596F7520456E74657265643A2000496E0E
:1001BC0070757420546F6F204C6F6E67210D0A00A0
:1001CC0055415254204563686F2052656164790D26
:0201DC000A0017
:00000001FF
